{
  "_format": "hh-sol-artifact-1",
  "contractName": "GigBlocksMainTesting1",
  "sourceName": "contracts/GigBlocksMain.sol",
  "abi": [
    {
      "inputs": [],
      "name": "AccessControlBadConfirmation",
      "type": "error"
    },
    {
      "inputs": [
        {
          "internalType": "address",
          "name": "account",
          "type": "address"
        },
        {
          "internalType": "bytes32",
          "name": "neededRole",
          "type": "bytes32"
        }
      ],
      "name": "AccessControlUnauthorizedAccount",
      "type": "error"
    },
    {
      "inputs": [],
      "name": "ReentrancyGuardReentrantCall",
      "type": "error"
    },
    {
      "anonymous": false,
      "inputs": [
        {
          "indexed": true,
          "internalType": "bytes32",
          "name": "role",
          "type": "bytes32"
        },
        {
          "indexed": true,
          "internalType": "bytes32",
          "name": "previousAdminRole",
          "type": "bytes32"
        },
        {
          "indexed": true,
          "internalType": "bytes32",
          "name": "newAdminRole",
          "type": "bytes32"
        }
      ],
      "name": "RoleAdminChanged",
      "type": "event"
    },
    {
      "anonymous": false,
      "inputs": [
        {
          "indexed": true,
          "internalType": "bytes32",
          "name": "role",
          "type": "bytes32"
        },
        {
          "indexed": true,
          "internalType": "address",
          "name": "account",
          "type": "address"
        },
        {
          "indexed": true,
          "internalType": "address",
          "name": "sender",
          "type": "address"
        }
      ],
      "name": "RoleGranted",
      "type": "event"
    },
    {
      "anonymous": false,
      "inputs": [
        {
          "indexed": true,
          "internalType": "bytes32",
          "name": "role",
          "type": "bytes32"
        },
        {
          "indexed": true,
          "internalType": "address",
          "name": "account",
          "type": "address"
        },
        {
          "indexed": true,
          "internalType": "address",
          "name": "sender",
          "type": "address"
        }
      ],
      "name": "RoleRevoked",
      "type": "event"
    },
    {
      "anonymous": false,
      "inputs": [
        {
          "indexed": true,
          "internalType": "address",
          "name": "user",
          "type": "address"
        },
        {
          "indexed": false,
          "internalType": "uint256",
          "name": "registrationDate",
          "type": "uint256"
        },
        {
          "indexed": false,
          "internalType": "bool",
          "name": "isFreelancer",
          "type": "bool"
        },
        {
          "indexed": false,
          "internalType": "bool",
          "name": "isClient",
          "type": "bool"
        }
      ],
      "name": "UserRegistered",
      "type": "event"
    },
    {
      "inputs": [],
      "name": "DEFAULT_ADMIN_ROLE",
      "outputs": [
        {
          "internalType": "bytes32",
          "name": "",
          "type": "bytes32"
        }
      ],
      "stateMutability": "view",
      "type": "function"
    },
    {
      "inputs": [
        {
          "internalType": "bytes32",
          "name": "role",
          "type": "bytes32"
        }
      ],
      "name": "getRoleAdmin",
      "outputs": [
        {
          "internalType": "bytes32",
          "name": "",
          "type": "bytes32"
        }
      ],
      "stateMutability": "view",
      "type": "function"
    },
    {
      "inputs": [
        {
          "internalType": "bytes32",
          "name": "role",
          "type": "bytes32"
        },
        {
          "internalType": "address",
          "name": "account",
          "type": "address"
        }
      ],
      "name": "grantRole",
      "outputs": [],
      "stateMutability": "nonpayable",
      "type": "function"
    },
    {
      "inputs": [
        {
          "internalType": "bytes32",
          "name": "role",
          "type": "bytes32"
        },
        {
          "internalType": "address",
          "name": "account",
          "type": "address"
        }
      ],
      "name": "hasRole",
      "outputs": [
        {
          "internalType": "bool",
          "name": "",
          "type": "bool"
        }
      ],
      "stateMutability": "view",
      "type": "function"
    },
    {
      "inputs": [
        {
          "internalType": "string",
          "name": "_profileIPFS",
          "type": "string"
        },
        {
          "internalType": "enum GigBlocksEnums.JobCategory[]",
          "name": "_preferences",
          "type": "uint8[]"
        },
        {
          "internalType": "bool",
          "name": "_isFreelancer",
          "type": "bool"
        },
        {
          "internalType": "bool",
          "name": "_isClient",
          "type": "bool"
        }
      ],
      "name": "register",
      "outputs": [],
      "stateMutability": "nonpayable",
      "type": "function"
    },
    {
      "inputs": [
        {
          "internalType": "bytes32",
          "name": "role",
          "type": "bytes32"
        },
        {
          "internalType": "address",
          "name": "callerConfirmation",
          "type": "address"
        }
      ],
      "name": "renounceRole",
      "outputs": [],
      "stateMutability": "nonpayable",
      "type": "function"
    },
    {
      "inputs": [
        {
          "internalType": "bytes32",
          "name": "role",
          "type": "bytes32"
        },
        {
          "internalType": "address",
          "name": "account",
          "type": "address"
        }
      ],
      "name": "revokeRole",
      "outputs": [],
      "stateMutability": "nonpayable",
      "type": "function"
    },
    {
      "inputs": [
        {
          "internalType": "bytes4",
          "name": "interfaceId",
          "type": "bytes4"
        }
      ],
      "name": "supportsInterface",
      "outputs": [
        {
          "internalType": "bool",
          "name": "",
          "type": "bool"
        }
      ],
      "stateMutability": "view",
      "type": "function"
    }
  ],
  "bytecode": "0x608060405234801561001057600080fd5b50600180556109bb806100246000396000f3fe608060405234801561001057600080fd5b50600436106100885760003560e01c806391d148541161005b57806391d148541461010e578063a217fddf14610121578063b5a8e72e14610129578063d547741f1461013c57600080fd5b806301ffc9a71461008d578063248a9ca3146100b55780632f2ff15d146100e657806336568abe146100fb575b600080fd5b6100a061009b366004610674565b61014f565b60405190151581526020015b60405180910390f35b6100d86100c33660046106a5565b60009081526020819052604090206001015490565b6040519081526020016100ac565b6100f96100f43660046106be565b610160565b005b6100f96101093660046106be565b61018b565b6100a061011c3660046106be565b6101c3565b6100d8600081565b6100f961013736600461075b565b6101ec565b6100f961014a3660046106be565b6103d0565b600061015a826103f5565b92915050565b60008281526020819052604090206001015461017b8161042a565b6101858383610437565b50505050565b6001600160a01b03811633146101b45760405163334bd91960e11b815260040160405180910390fd5b6101be82826104c9565b505050565b6000918252602082815260408084206001600160a01b0393909316845291905290205460ff1690565b6101f4610534565b336000908152600260205260409020600190810154161561025c5760405162461bcd60e51b815260206004820152601a60248201527f5573657220697320616c7265616479207265676973746572656400000000000060448201526064015b60405180910390fd5b81806102655750805b6102ca5760405162461bcd60e51b815260206004820152603060248201527f55736572206d7573742062652065697468657220667265656c616e636572206f60448201526f0e440c6d8d2cadce840dee440c4dee8d60831b6064820152608401610253565b336000908152600260205260409020806102e58789836108ae565b506102f460038201868661059b565b5081610301576000610304565b60045b83610310576000610313565b60025b6001838101805460ff191692909317811760ff169190911790915542600283018190556003805492830181556000527fc2575a0e9e593c00f959f8c92f12db2869c3395a3b0502d05e2516446f71f85b9091018054336001600160a01b0319909116811790915560408051928352851515602084015284151590830152907f17bbc82c88ee0a99a1bdc51afb0845b607e4d04be9f6cbf0b8103a329ab6545b9060600160405180910390a2506103c860018055565b505050505050565b6000828152602081905260409020600101546103eb8161042a565b61018583836104c9565b60006001600160e01b03198216637965db0b60e01b148061015a57506301ffc9a760e01b6001600160e01b031983161461015a565b610434813361055e565b50565b600061044383836101c3565b6104c1576000838152602081815260408083206001600160a01b03861684529091529020805460ff191660011790556104793390565b6001600160a01b0316826001600160a01b0316847f2f8788117e7eff1d82e926ec794901d17c78024a50270940304540a733656f0d60405160405180910390a450600161015a565b50600061015a565b60006104d583836101c3565b156104c1576000838152602081815260408083206001600160a01b0386168085529252808320805460ff1916905551339286917ff6391f5c32d9c69d2a47ea670b442974b53935d1edc7fd64eb21e047a839171b9190a450600161015a565b60026001540361055757604051633ee5aeb560e01b815260040160405180910390fd5b6002600155565b61056882826101c3565b6105975760405163e2517d3f60e01b81526001600160a01b038216600482015260248101839052604401610253565b5050565b82805482825590600052602060002090601f0160209004810192821561064f5791602002820160005b83821115610620578335600a811180156105dd57600080fd5b5083826101000a81548160ff0219169083600a8111156105ff576105ff61096f565b021790555092602001926001016020816000010492830192600103026105c4565b801561064d5782816101000a81549060ff0219169055600101602081600001049283019260010302610620565b505b5061065b92915061065f565b5090565b5b8082111561065b5760008155600101610660565b60006020828403121561068657600080fd5b81356001600160e01b03198116811461069e57600080fd5b9392505050565b6000602082840312156106b757600080fd5b5035919050565b600080604083850312156106d157600080fd5b8235915060208301356001600160a01b03811681146106ef57600080fd5b809150509250929050565b60008083601f84011261070c57600080fd5b50813567ffffffffffffffff81111561072457600080fd5b6020830191508360208260051b850101111561073f57600080fd5b9250929050565b8035801515811461075657600080fd5b919050565b6000806000806000806080878903121561077457600080fd5b863567ffffffffffffffff8082111561078c57600080fd5b818901915089601f8301126107a057600080fd5b8135818111156107af57600080fd5b8a60208285010111156107c157600080fd5b6020928301985096509088013590808211156107dc57600080fd5b506107e989828a016106fa565b90955093506107fc905060408801610746565b915061080a60608801610746565b90509295509295509295565b634e487b7160e01b600052604160045260246000fd5b600181811c9082168061084057607f821691505b60208210810361086057634e487b7160e01b600052602260045260246000fd5b50919050565b601f8211156101be576000816000526020600020601f850160051c8101602086101561088f5750805b601f850160051c820191505b818110156103c85782815560010161089b565b67ffffffffffffffff8311156108c6576108c6610816565b6108da836108d4835461082c565b83610866565b6000601f84116001811461090e57600085156108f65750838201355b600019600387901b1c1916600186901b178355610968565b600083815260209020601f19861690835b8281101561093f578685013582556020948501946001909201910161091f565b508682101561095c5760001960f88860031b161c19848701351681555b505060018560011b0183555b5050505050565b634e487b7160e01b600052602160045260246000fdfea264697066735822122029ba66969eda768ecebec981136ee5c530dd97aaa9c5a8c3680d95d9e160428764736f6c63430008180033",
  "linkReferences": {},
  "deployedLinkReferences": {}
}